S00E0000537570706C792E7372656389
S11300000C9456000C9473000C9473000C940D0221
S11300100C9473000C9473000C9473000C94730090
S11300200C9473000C9459020C9473000C94AB015F
S11300300C9473000C9473000C9473000C94730070
S11300400C9473000C9473000C9473000C94730060
S11300500C9473000C9473000C9473000C94730050
S11300600C9473000C9473000C9473000C94730040
S11300700C9473000C9473000C9473000C94730030
S11300800C9473000C9473000C9473000C94730020
S11300900C9473000C9473000C9473000C94730010
S11300A00C9473000C9473000C94730011241FBE01
S11300B0CFEFCDBFDFE2DEBF12E2A0E0B0E2E4EFBB
S11300C0F9E002C005900D92A230B107D9F722E2FF
S11300D0A2E0B2E201C01D92AE33B207E1F70E9482
S11300E05C040C94F8040C940000E0910322EF5F8C
S11300F0E0930322F0E0EC5FFD4D808308958EEAE7
S11301000E94750085ED0E94750080E80E947500CC
S113011088EA0E9475008FE10E94750083ED0E94B9
S1130120750080E00E94750080E40E9475008DE8EF
S11301300E94750084E10E94750080E20E947500AF
S113014080E00E94750081EA0E94750088EC0E949C
S113015075008AED0E94750082E00E94750081E8B6
S11301600E9475008FE80E94750089ED0E94750059
S113017081EF0E9475008BED0E94750080E40E945F
S1130180750084EA0E94750086EA0E9475008EE27A
S11301900E9475008FEA0C9475008038910520F553
S11301A06032710508F59B0153E0359527955A9502
S11301B0E1F7677077273695322F222737952795F1
S11301C0FC01E20FF31FEF5FFF4D81E090E001C0FF
S11301D0880F6A95EAF7442319F09081892B03C0AC
S11301E0809590818923808308954F925F926F92C6
S11301F07F928F929F92AF92BF92CF92DF92EF92B3
S1130200FF920F931F93CF93DF93EC017B016A015D
S1130210402EA901461B570B57FF03C0519541952A
S11302205109C6018C1B9D0B97FF03C091958195C5
S11302309109552453948417950714F0512C0AC03E
S11302409C2D8D2D6901292F382F9C2F8D2FE7018F
S1130250E92EF82ECC16DD0654F49E2D8F2D79014F
S1130260292F382F9C2F8D2FE601C92ED82E560109
S1130270AC1ABD0A49018E189F0897FE03C09194D9
S1130280819491083501B7FE03C08FEF681A780A8C
S113029075946794E216F3061CF001E010E013C0B5
S11302A00FEF1FEF10C0442D552089F0BE01C70188
S11302B00E94CD006818790877FE04C0E00EF11E94
S11302C06A0C7B1C2196CC16DD066CF703C0B701C3
S11302D0CE01EECFDF91CF911F910F91FF90EF9060
S11302E0DF90CF90BF90AF909F908F907F906F9052
S11302F05F904F9008950F93022F460F571F9A0156
S113030021503109AC010E94F5000F910895AF927C
S1130310BF92CF92DF92EF92FF920F93CF93DF932E
S11303206B015901EC017C01E40EF51ECE15DF05CD
S113033044F4202FA501B601CE010E947B01219631
S1130340F5CFDF91CF910F91FF90EF90DF90CF9099
S1130350BF90AF9008951F920F920FB60F92112481
S11303602F934F935F938F939F93AF93BF93EF9389
S1130370FF9380910222811105C081E080930222C3
S113038088E73BC0813021F482E08093022234C0AC
S113039010920222809100208823C9F080912422A7
S11303A090912522811522E0920750F401968093C2
S11303B0242290932522FC01EF5FFF4D80811DC014
S11303C010922422109225221092002015C09091A0
S11303D00322992389F0809104229150909303225F
S11303E0A5E0B2E244E052E2FA012E2F241B2917C1
S11303F020F42D912193F9CF80E080938704FF911D
S1130400EF91BF91AF919F918F915F914F912F91F8
S11304100F900FBE0F901F9018951F920F920FB65A
S11304200F9211242F938F939F9380911801909191
S113043019018453924241F482E392E280931801B9
S11304409093190188E00EC08091180190911901D0
S11304508253924251F480E392E280931801909384
S1130460190180E18093210217C0809118019091B5
S113047019018053924241F48EE292E28093180172
S11304809093190188E1EECF84E392E280931801FE
S1130490909319011092210280910002846080934C
S11304A000029F918F912F910F900FBE0F901F907C
S11304B018951F920F920FB60F9211248F9381E01B
S11304C080932D228F910F900FBE0F901F9018953F
S11304D00F931F93CF93DF9380910122882349F1D7
S11304E080912B2290912C2266E970E00E94E40412
S11304F0162F1295107F00E08091342290913522BE
S11305008017910708F04AC08091292290912A22ED
S113051064E670E00E94E404D62FD295D07F80E098
S1130520C82F8091322290913322C817D907B0F591
S113053026C08091292290912A2264E670E00E94CC
S1130540E404F62FF295F07FE0E08091322290915E
S113055033228E179F0710F580912B2290912C2225
S113056066E970E00E94E404362F3295307F20E083
S113057080913422909135222817390778F480919C
S113058068099091690901968093680990936909B3
S113059080916A0990916B0901960EC08091680957
S11305A090916909019780936809909369098091F2
S11305B06A0990916B09019780936A0990936B097A
S11305C0DF91CF911F910F910895809160089091D0
S11305D06108892B09F494C0209160083091610866
S11305E08091272237FF44C0882341F1809128223B
S11305F0823020F590912622911120C0209160082C
S1130600309161083695279536952795811107C055
S113061080912B2290912C22821B930B48C08091B5
S1130620292290912A22821B930B8436910508F08B
S11306304EC01092292210922A225EC08091600836
S11306409091610896958795969587959195819552
S1130650910965E070E00E94E404892B09F04CC024
S113066080912822811102C084E044C0815042C09C
S113067020912822882381F1223070F5809126224E
S113068081112AC0809160089091610896958795A0
S113069096958795211110C020912B2230912C2200
S11306A0820F931F8739910510F086E990E08093BB
S11306B02B2290932C2220C02091292230912A228F
S11306C0820F931F8536910510F084E690E08093A5
S11306D0292290932A2210C0809160089091610889
S11306E0969587959695879565E070E00E94E40459
S11306F0820F911D80932822109260081092610845
S113070080912D228823C1F010922D2280912822DD
S1130710823021F481E0809301220895833019F41A
S1130720109201220895843021F481E080932622DE
S1130730089581E080932722089587E88093A2009A
S113074021E02093490680914A06846080934A06FA
S113075083E0809350068093510698E29093530669
S113076090935406909161069061909361069091E4
S113077061069062909361069091610690689093EF
S1130780610690917406986590937406909175062D
S11307909061909375069091770690619093770697
S11307A098E09093400890E89093430895E09093E4
S11307B041099091420991609093420990914409B2
S11307C095609093440994E0909340094FEF50E072
S11307D04093660950936709909100029160909349
S11307E000029091020292609093020280930402AC
S11307F080912002816080932002109221028AE07D
S113080080932C028091000181608093000180918B
S113081003018160809303018091100181608093C2
S11308201001809111018160809311018091120166
S1130830806180931201809114018061809314017E
S113084084E392E28093180190931901809110013E
S1130850806880931001809100018068809300017A
S113086080E680938001809188018F608093880165
S113087083E28093850488E78093860498E59093C7
S113088081048093860487E08093000420934000D1
S11308908091430085608093430082E08093500000
S11308A08091510081FDFCCF0E947F008091000265
S11308B084608093000208950E949D030E94680250
S11308C00E94E5020E946504F9CF0F93209135221E
S11308D0822F82958F7090E02FE0289FB001299F8E
S11308E0700D112480E090E00E94A70460933A22E6
S11308F070933B2280933C2290933D22809133223B
S1130900682F62956F7070E080E090E00E94A70409
S11309106093362270933722809338229093392241
S113092000E022E130E04CE150E061E070E089E079
S113093090E00E94870122E130E048E450E061E069
S113094070E085E390E00E9487010F910895E89498
S113095009C097FB3EF490958095709561957F4F03
S11309608F4F9F4F9923A9F0F92F96E9BB279395B1
S1130970F695879577956795B795F111F8CFFAF4C1
S1130980BB0F11F460FF1BC06F5F7F4F8F4F9F4FF2
S113099016C0882311F096E911C0772321F09EE850
S11309A0872F762F05C0662371F096E8862F70E0B6
S11309B060E02AF09A95660F771F881FDAF7880F90
S11309C09695879597F90895AA1BBB1B51E107C01B
S11309D0AA1FBB1FA617B70710F0A61BB70B881FCB
S11309E0991F5A95A9F780959095BC01CD0108955A
S10709F0F894FFCFA5
S11309F401000000000000000000000000000000EE
S1130A0400EE000001C70000000000000000000028
S1130A140044000000C600000000000000000000C4
S1130A240044000000C600000000000000000000B4
S1130A340028000000AA3360000000000000000049
S1130A440028000000AA0940000000000000000083
S1130A540028000000AA3880000000000000000004
S1130A640010000000924940000000000000000053
S1130A740010000001D73F600000000000000000E7
S1130A84000000000000000000000000000000005E
S1130A94000000000000000000000000000000004E
S1130AA40010000001C70000000000000000000066
S1130AB40010000000C60000000000000000000058
S1130AC40028000000C60000000000000000000030
S1130AD40028000000AA33600000000000000000A9
S1130AE40028000000AA09400000000000000000E3
S1130AF4007C000000AA3880000000000000000010
S1130B04004400000092494000000000000000007E
S1130B1400EE000001D73F60000000000000000068
S1130B2400000000000000000000000000000000BD
S1130B3400000000000000000000000000000000AD
S1130B44000000000E000000000000000000670028
S1130B5400000000124020000000000000002200F9
S1130B6404000000104020000000000000003200D7
S1130B740400000008E67D980000000000002A3309
S1130B846E000000044124A00000000000002A4973
S1130B944400000002472498000000000000267866
S1130BA4840000001249248800000000000022414F
S1130BB4440000001C67B3F0000000000000723B16
S1130BC466000000000000000000000000000000B7
S1130BD4000000000000000000000000000000000D
S1130BE400000000000000000000000000000000FD
S1050BF40001FA
S9030000FC
